{
  "contractName": "NFTLootBox",
  "abi": [
    {
      "inputs": [],
      "stateMutability": "nonpayable",
      "type": "constructor"
    },
    {
      "anonymous": false,
      "inputs": [
        {
          "indexed": true,
          "internalType": "address",
          "name": "owner",
          "type": "address"
        },
        {
          "indexed": true,
          "internalType": "address",
          "name": "approved",
          "type": "address"
        },
        {
          "indexed": true,
          "internalType": "uint256",
          "name": "tokenId",
          "type": "uint256"
        }
      ],
      "name": "Approval",
      "type": "event"
    },
    {
      "anonymous": false,
      "inputs": [
        {
          "indexed": true,
          "internalType": "address",
          "name": "owner",
          "type": "address"
        },
        {
          "indexed": true,
          "internalType": "address",
          "name": "operator",
          "type": "address"
        },
        {
          "indexed": false,
          "internalType": "bool",
          "name": "approved",
          "type": "bool"
        }
      ],
      "name": "ApprovalForAll",
      "type": "event"
    },
    {
      "anonymous": false,
      "inputs": [
        {
          "indexed": false,
          "internalType": "uint256",
          "name": "_fromTokenId",
          "type": "uint256"
        },
        {
          "indexed": false,
          "internalType": "uint256",
          "name": "_toTokenId",
          "type": "uint256"
        }
      ],
      "name": "BatchMetadataUpdate",
      "type": "event"
    },
    {
      "anonymous": false,
      "inputs": [
        {
          "indexed": false,
          "internalType": "uint256",
          "name": "_tokenId",
          "type": "uint256"
        }
      ],
      "name": "MetadataUpdate",
      "type": "event"
    },
    {
      "anonymous": false,
      "inputs": [
        {
          "indexed": true,
          "internalType": "address",
          "name": "previousOwner",
          "type": "address"
        },
        {
          "indexed": true,
          "internalType": "address",
          "name": "newOwner",
          "type": "address"
        }
      ],
      "name": "OwnershipTransferred",
      "type": "event"
    },
    {
      "anonymous": false,
      "inputs": [
        {
          "indexed": true,
          "internalType": "address",
          "name": "from",
          "type": "address"
        },
        {
          "indexed": true,
          "internalType": "address",
          "name": "to",
          "type": "address"
        },
        {
          "indexed": true,
          "internalType": "uint256",
          "name": "tokenId",
          "type": "uint256"
        }
      ],
      "name": "Transfer",
      "type": "event"
    },
    {
      "inputs": [
        {
          "internalType": "address",
          "name": "to",
          "type": "address"
        },
        {
          "internalType": "uint256",
          "name": "tokenId",
          "type": "uint256"
        }
      ],
      "name": "approve",
      "outputs": [],
      "stateMutability": "nonpayable",
      "type": "function"
    },
    {
      "inputs": [
        {
          "internalType": "address",
          "name": "owner",
          "type": "address"
        }
      ],
      "name": "balanceOf",
      "outputs": [
        {
          "internalType": "uint256",
          "name": "",
          "type": "uint256"
        }
      ],
      "stateMutability": "view",
      "type": "function",
      "constant": true
    },
    {
      "inputs": [
        {
          "internalType": "uint256",
          "name": "tokenId",
          "type": "uint256"
        }
      ],
      "name": "getApproved",
      "outputs": [
        {
          "internalType": "address",
          "name": "",
          "type": "address"
        }
      ],
      "stateMutability": "view",
      "type": "function",
      "constant": true
    },
    {
      "inputs": [
        {
          "internalType": "address",
          "name": "owner",
          "type": "address"
        },
        {
          "internalType": "address",
          "name": "operator",
          "type": "address"
        }
      ],
      "name": "isApprovedForAll",
      "outputs": [
        {
          "internalType": "bool",
          "name": "",
          "type": "bool"
        }
      ],
      "stateMutability": "view",
      "type": "function",
      "constant": true
    },
    {
      "inputs": [],
      "name": "name",
      "outputs": [
        {
          "internalType": "string",
          "name": "",
          "type": "string"
        }
      ],
      "stateMutability": "view",
      "type": "function",
      "constant": true
    },
    {
      "inputs": [],
      "name": "owner",
      "outputs": [
        {
          "internalType": "address",
          "name": "",
          "type": "address"
        }
      ],
      "stateMutability": "view",
      "type": "function",
      "constant": true
    },
    {
      "inputs": [
        {
          "internalType": "uint256",
          "name": "tokenId",
          "type": "uint256"
        }
      ],
      "name": "ownerOf",
      "outputs": [
        {
          "internalType": "address",
          "name": "",
          "type": "address"
        }
      ],
      "stateMutability": "view",
      "type": "function",
      "constant": true
    },
    {
      "inputs": [],
      "name": "renounceOwnership",
      "outputs": [],
      "stateMutability": "nonpayable",
      "type": "function"
    },
    {
      "inputs": [
        {
          "internalType": "address",
          "name": "from",
          "type": "address"
        },
        {
          "internalType": "address",
          "name": "to",
          "type": "address"
        },
        {
          "internalType": "uint256",
          "name": "tokenId",
          "type": "uint256"
        }
      ],
      "name": "safeTransferFrom",
      "outputs": [],
      "stateMutability": "nonpayable",
      "type": "function"
    },
    {
      "inputs": [
        {
          "internalType": "address",
          "name": "from",
          "type": "address"
        },
        {
          "internalType": "address",
          "name": "to",
          "type": "address"
        },
        {
          "internalType": "uint256",
          "name": "tokenId",
          "type": "uint256"
        },
        {
          "internalType": "bytes",
          "name": "data",
          "type": "bytes"
        }
      ],
      "name": "safeTransferFrom",
      "outputs": [],
      "stateMutability": "nonpayable",
      "type": "function"
    },
    {
      "inputs": [
        {
          "internalType": "address",
          "name": "operator",
          "type": "address"
        },
        {
          "internalType": "bool",
          "name": "approved",
          "type": "bool"
        }
      ],
      "name": "setApprovalForAll",
      "outputs": [],
      "stateMutability": "nonpayable",
      "type": "function"
    },
    {
      "inputs": [
        {
          "internalType": "bytes4",
          "name": "interfaceId",
          "type": "bytes4"
        }
      ],
      "name": "supportsInterface",
      "outputs": [
        {
          "internalType": "bool",
          "name": "",
          "type": "bool"
        }
      ],
      "stateMutability": "view",
      "type": "function",
      "constant": true
    },
    {
      "inputs": [],
      "name": "symbol",
      "outputs": [
        {
          "internalType": "string",
          "name": "",
          "type": "string"
        }
      ],
      "stateMutability": "view",
      "type": "function",
      "constant": true
    },
    {
      "inputs": [
        {
          "internalType": "uint256",
          "name": "tokenId",
          "type": "uint256"
        }
      ],
      "name": "tokenURI",
      "outputs": [
        {
          "internalType": "string",
          "name": "",
          "type": "string"
        }
      ],
      "stateMutability": "view",
      "type": "function",
      "constant": true
    },
    {
      "inputs": [
        {
          "internalType": "address",
          "name": "from",
          "type": "address"
        },
        {
          "internalType": "address",
          "name": "to",
          "type": "address"
        },
        {
          "internalType": "uint256",
          "name": "tokenId",
          "type": "uint256"
        }
      ],
      "name": "transferFrom",
      "outputs": [],
      "stateMutability": "nonpayable",
      "type": "function"
    },
    {
      "inputs": [
        {
          "internalType": "address",
          "name": "newOwner",
          "type": "address"
        }
      ],
      "name": "transferOwnership",
      "outputs": [],
      "stateMutability": "nonpayable",
      "type": "function"
    },
    {
      "inputs": [
        {
          "internalType": "address",
          "name": "recipient",
          "type": "address"
        },
        {
          "internalType": "string",
          "name": "tokenURI",
          "type": "string"
        },
        {
          "internalType": "address",
          "name": "serverAddress",
          "type": "address"
        }
      ],
      "name": "mintNFT",
      "outputs": [
        {
          "internalType": "uint256",
          "name": "",
          "type": "uint256"
        }
      ],
      "stateMutability": "nonpayable",
      "type": "function"
    },
    {
      "inputs": [
        {
          "internalType": "address",
          "name": "tokenAddress",
          "type": "address"
        }
      ],
      "name": "setToken",
      "outputs": [
        {
          "internalType": "bool",
          "name": "",
          "type": "bool"
        }
      ],
      "stateMutability": "nonpayable",
      "type": "function"
    }
  ],
  "bytecode": "0x60806040523480156200001157600080fd5b506040518060400160405280600681526020017f4d794e46547300000000000000000000000000000000000000000000000000008152506040518060400160405280600481526020017f4d4e465400000000000000000000000000000000000000000000000000000000815250816000908051906020019062000096929190620001ae565b508060019080519060200190620000af929190620001ae565b505050620000d2620000c6620000e060201b60201c565b620000e860201b60201c565b6014600a81905550620002c3565b600033905090565b6000600760009054906101000a900473ffffffffffffffffffffffffffffffffffffffff16905081600760006101000a81548173ffffffffffffffffffffffffffffffffffffffff021916908373ffffffffffffffffffffffffffffffffffffffff1602179055508173ffffffffffffffffffffffffffffffffffffffff168173ffffffffffffffffffffffffffffffffffffffff167f8be0079c531659141344cd1fd0a4f28419497f9722a3daafe3b4186f6b6457e060405160405180910390a35050565b828054620001bc906200028d565b90600052602060002090601f016020900481019282620001e057600085556200022c565b82601f10620001fb57805160ff19168380011785556200022c565b828001600101855582156200022c579182015b828111156200022b5782518255916020019190600101906200020e565b5b5090506200023b91906200023f565b5090565b5b808211156200025a57600081600090555060010162000240565b5090565b7f4e487b7100000000000000000000000000000000000000000000000000000000600052602260045260246000fd5b60006002820490506001821680620002a657607f821691505b60208210811415620002bd57620002bc6200025e565b5b50919050565b612f7780620002d36000396000f3fe608060405234801561001057600080fd5b50600436106101165760003560e01c8063715018a6116100a2578063b88d4fde11610071578063b88d4fde146102df578063c87b56dd146102fb578063d01f7a871461032b578063e985e9c51461035b578063f2fde38b1461038b57610116565b8063715018a61461027d5780638da5cb5b1461028757806395d89b41146102a5578063a22cb465146102c357610116565b8063144fa6d7116100e9578063144fa6d7146101b557806323b872dd146101e557806342842e0e146102015780636352211e1461021d57806370a082311461024d57610116565b806301ffc9a71461011b57806306fdde031461014b578063081812fc14610169578063095ea7b314610199575b600080fd5b61013560048036038101906101309190611f0e565b6103a7565b6040516101429190611f56565b60405180910390f35b610153610408565b604051610160919061200a565b60405180910390f35b610183600480360381019061017e9190612062565b61049a565b60405161019091906120d0565b60405180910390f35b6101b360048036038101906101ae9190612117565b6104e0565b005b6101cf60048036038101906101ca9190612157565b6105f8565b6040516101dc9190611f56565b60405180910390f35b6101ff60048036038101906101fa9190612184565b610686565b005b61021b60048036038101906102169190612184565b6106e6565b005b61023760048036038101906102329190612062565b610706565b60405161024491906120d0565b60405180910390f35b61026760048036038101906102629190612157565b61078d565b60405161027491906121e6565b60405180910390f35b610285610845565b005b61028f610859565b60405161029c91906120d0565b60405180910390f35b6102ad610883565b6040516102ba919061200a565b60405180910390f35b6102dd60048036038101906102d8919061222d565b610915565b005b6102f960048036038101906102f491906123a2565b61092b565b005b61031560048036038101906103109190612062565b61098d565b604051610322919061200a565b60405180910390f35b610345600480360381019061034091906124c6565b610aa0565b60405161035291906121e6565b60405180910390f35b61037560048036038101906103709190612535565b610c27565b6040516103829190611f56565b60405180910390f35b6103a560048036038101906103a09190612157565b610cbb565b005b6000634906490660e01b7bffffffffffffffffffffffffffffffffffffffffffffffffffffffff1916827bffffffffffffffffffffffffffffffffffffffffffffffffffffffff19161480610401575061040082610d3f565b5b9050919050565b606060008054610417906125a4565b80601f0160208091040260200160405190810160405280929190818152602001828054610443906125a4565b80156104905780601f1061046557610100808354040283529160200191610490565b820191906000526020600020905b81548152906001019060200180831161047357829003601f168201915b5050505050905090565b60006104a582610e21565b6004600083815260200190815260200160002060009054906101000a900473ffffffffffffffffffffffffffffffffffffffff169050919050565b60006104eb82610706565b90508073ffffffffffffffffffffffffffffffffffffffff168373ffffffffffffffffffffffffffffffffffffffff16141561055c576040517f08c379a000000000000000000000000000000000000000000000000000000000815260040161055390612648565b60405180910390fd5b8073ffffffffffffffffffffffffffffffffffffffff1661057b610e6c565b73ffffffffffffffffffffffffffffffffffffffff1614806105aa57506105a9816105a4610e6c565b610c27565b5b6105e9576040517f08c379a00000000000000000000000000000000000000000000000000000000081526004016105e0906126da565b60405180910390fd5b6105f38383610e74565b505050565b6000610602610f2d565b600073ffffffffffffffffffffffffffffffffffffffff168273ffffffffffffffffffffffffffffffffffffffff16141561063c57600080fd5b81600960006101000a81548173ffffffffffffffffffffffffffffffffffffffff021916908373ffffffffffffffffffffffffffffffffffffffff16021790555060019050919050565b610697610691610e6c565b82610fab565b6106d6576040517f08c379a00000000000000000000000000000000000000000000000000000000081526004016106cd9061276c565b60405180910390fd5b6106e1838383611040565b505050565b6107018383836040518060200160405280600081525061092b565b505050565b6000806107128361133a565b9050600073ffffffffffffffffffffffffffffffffffffffff168173ffffffffffffffffffffffffffffffffffffffff161415610784576040517f08c379a000000000000000000000000000000000000000000000000000000000815260040161077b906127d8565b60405180910390fd5b80915050919050565b60008073ffffffffffffffffffffffffffffffffffffffff168273ffffffffffffffffffffffffffffffffffffffff1614156107fe576040517f08c379a00000000000000000000000000000000000000000000000000000000081526004016107f59061286a565b60405180910390fd5b600360008373ffffffffffffffffffffffffffffffffffffffff1673ffffffffffffffffffffffffffffffffffffffff168152602001908152602001600020549050919050565b61084d610f2d565b6108576000611377565b565b6000600760009054906101000a900473ffffffffffffffffffffffffffffffffffffffff16905090565b606060018054610892906125a4565b80601f01602080910402602001604051908101604052809291908181526020018280546108be906125a4565b801561090b5780601f106108e05761010080835404028352916020019161090b565b820191906000526020600020905b8154815290600101906020018083116108ee57829003601f168201915b5050505050905090565b610927610920610e6c565b838361143d565b5050565b61093c610936610e6c565b83610fab565b61097b576040517f08c379a00000000000000000000000000000000000000000000000000000000081526004016109729061276c565b60405180910390fd5b610987848484846115aa565b50505050565b606061099882610e21565b60006006600084815260200190815260200160002080546109b8906125a4565b80601f01602080910402602001604051908101604052809291908181526020018280546109e4906125a4565b8015610a315780601f10610a0657610100808354040283529160200191610a31565b820191906000526020600020905b815481529060010190602001808311610a1457829003601f168201915b505050505090506000610a42611606565b9050600081511415610a58578192505050610a9b565b600082511115610a8d578082604051602001610a759291906128c6565b60405160208183030381529060405292505050610a9b565b610a968461161d565b925050505b919050565b6000600a54600960009054906101000a900473ffffffffffffffffffffffffffffffffffffffff1673ffffffffffffffffffffffffffffffffffffffff166370a08231866040518263ffffffff1660e01b8152600401610b0091906120d0565b602060405180830381865afa158015610b1d573d6000803e3d6000fd5b505050506040513d601f19601f82011682018060405250810190610b4191906128ff565b11610b4b57600080fd5b600960009054906101000a900473ffffffffffffffffffffffffffffffffffffffff1673ffffffffffffffffffffffffffffffffffffffff166323b872dd8584600a546040518463ffffffff1660e01b8152600401610bac9392919061292c565b6020604051808303816000875af1158015610bcb573d6000803e3d6000fd5b505050506040513d601f19601f82011682018060405250810190610bef9190612978565b50610bfa6008611685565b6000610c06600861169b565b9050610c1285826116a9565b610c1c81856118c7565b809150509392505050565b6000600560008473ffffffffffffffffffffffffffffffffffffffff1673ffffffffffffffffffffffffffffffffffffffff16815260200190815260200160002060008373ffffffffffffffffffffffffffffffffffffffff1673ffffffffffffffffffffffffffffffffffffffff16815260200190815260200160002060009054906101000a900460ff16905092915050565b610cc3610f2d565b600073ffffffffffffffffffffffffffffffffffffffff168173ffffffffffffffffffffffffffffffffffffffff161415610d33576040517f08c379a0000000000000000000000000000000000000000000000000000000008152600401610d2a90612a17565b60405180910390fd5b610d3c81611377565b50565b60007f80ac58cd000000000000000000000000000000000000000000000000000000007bffffffffffffffffffffffffffffffffffffffffffffffffffffffff1916827bffffffffffffffffffffffffffffffffffffffffffffffffffffffff19161480610e0a57507f5b5e139f000000000000000000000000000000000000000000000000000000007bffffffffffffffffffffffffffffffffffffffffffffffffffffffff1916827bffffffffffffffffffffffffffffffffffffffffffffffffffffffff1916145b80610e1a5750610e1982611972565b5b9050919050565b610e2a816119dc565b610e69576040517f08c379a0000000000000000000000000000000000000000000000000000000008152600401610e60906127d8565b60405180910390fd5b50565b600033905090565b816004600083815260200190815260200160002060006101000a81548173ffffffffffffffffffffffffffffffffffffffff021916908373ffffffffffffffffffffffffffffffffffffffff160217905550808273ffffffffffffffffffffffffffffffffffffffff16610ee783610706565b73ffffffffffffffffffffffffffffffffffffffff167f8c5be1e5ebec7d5bd14f71427d1e84f3dd0314c0f7b2291e5b200ac8c7c3b92560405160405180910390a45050565b610f35610e6c565b73ffffffffffffffffffffffffffffffffffffffff16610f53610859565b73ffffffffffffffffffffffffffffffffffffffff1614610fa9576040517f08c379a0000000000000000000000000000000000000000000000000000000008152600401610fa090612a83565b60405180910390fd5b565b600080610fb783610706565b90508073ffffffffffffffffffffffffffffffffffffffff168473ffffffffffffffffffffffffffffffffffffffff161480610ff95750610ff88185610c27565b5b8061103757508373ffffffffffffffffffffffffffffffffffffffff1661101f8461049a565b73ffffffffffffffffffffffffffffffffffffffff16145b91505092915050565b8273ffffffffffffffffffffffffffffffffffffffff1661106082610706565b73ffffffffffffffffffffffffffffffffffffffff16146110b6576040517f08c379a00000000000000000000000000000000000000000000000000000000081526004016110ad90612b15565b60405180910390fd5b600073ffffffffffffffffffffffffffffffffffffffff168273ffffffffffffffffffffffffffffffffffffffff161415611126576040517f08c379a000000000000000000000000000000000000000000000000000000000815260040161111d90612ba7565b60405180910390fd5b6111338383836001611a1d565b8273ffffffffffffffffffffffffffffffffffffffff1661115382610706565b73ffffffffffffffffffffffffffffffffffffffff16146111a9576040517f08c379a00000000000000000000000000000000000000000000000000000000081526004016111a090612b15565b60405180910390fd5b6004600082815260200190815260200160002060006101000a81549073ffffffffffffffffffffffffffffffffffffffff02191690556001600360008573ffffffffffffffffffffffffffffffffffffffff1673ffffffffffffffffffffffffffffffffffffffff168152602001908152602001600020600082825403925050819055506001600360008473ffffffffffffffffffffffffffffffffffffffff1673ffffffffffffffffffffffffffffffffffffffff16815260200190815260200160002060008282540192505081905550816002600083815260200190815260200160002060006101000a81548173ffffffffffffffffffffffffffffffffffffffff021916908373ffffffffffffffffffffffffffffffffffffffff160217905550808273ffffffffffffffffffffffffffffffffffffffff168473ffffffffffffffffffffffffffffffffffffffff167fddf252ad1be2c89b69c2b068fc378daa952ba7f163c4a11628f55a4df523b3ef60405160405180910390a46113358383836001611a23565b505050565b60006002600083815260200190815260200160002060009054906101000a900473ffffffffffffffffffffffffffffffffffffffff169050919050565b6000600760009054906101000a900473ffffffffffffffffffffffffffffffffffffffff16905081600760006101000a81548173ffffffffffffffffffffffffffffffffffffffff021916908373ffffffffffffffffffffffffffffffffffffffff1602179055508173ffffffffffffffffffffffffffffffffffffffff168173ffffffffffffffffffffffffffffffffffffffff167f8be0079c531659141344cd1fd0a4f28419497f9722a3daafe3b4186f6b6457e060405160405180910390a35050565b8173ffffffffffffffffffffffffffffffffffffffff168373ffffffffffffffffffffffffffffffffffffffff1614156114ac576040517f08c379a00000000000000000000000000000000000000000000000000000000081526004016114a390612c13565b60405180910390fd5b80600560008573ffffffffffffffffffffffffffffffffffffffff1673ffffffffffffffffffffffffffffffffffffffff16815260200190815260200160002060008473ffffffffffffffffffffffffffffffffffffffff1673ffffffffffffffffffffffffffffffffffffffff16815260200190815260200160002060006101000a81548160ff0219169083151502179055508173ffffffffffffffffffffffffffffffffffffffff168373ffffffffffffffffffffffffffffffffffffffff167f17307eab39ab6107e8899845ad3d59bd9653f200f220920489ca2b5937696c318360405161159d9190611f56565b60405180910390a3505050565b6115b5848484611040565b6115c184848484611a29565b611600576040517f08c379a00000000000000000000000000000000000000000000000000000000081526004016115f790612ca5565b60405180910390fd5b50505050565b606060405180602001604052806000815250905090565b606061162882610e21565b6000611632611606565b90506000815111611652576040518060200160405280600081525061167d565b8061165c84611bb1565b60405160200161166d9291906128c6565b6040516020818303038152906040525b915050919050565b6001816000016000828254019250508190555050565b600081600001549050919050565b600073ffffffffffffffffffffffffffffffffffffffff168273ffffffffffffffffffffffffffffffffffffffff161415611719576040517f08c379a000000000000000000000000000000000000000000000000000000000815260040161171090612d11565b60405180910390fd5b611722816119dc565b15611762576040517f08c379a000000000000000000000000000000000000000000000000000000000815260040161175990612d7d565b60405180910390fd5b611770600083836001611a1d565b611779816119dc565b156117b9576040517f08c379a00000000000000000000000000000000000000000000000000000000081526004016117b090612d7d565b60405180910390fd5b6001600360008473ffffffffffffffffffffffffffffffffffffffff1673ffffffffffffffffffffffffffffffffffffffff16815260200190815260200160002060008282540192505081905550816002600083815260200190815260200160002060006101000a81548173ffffffffffffffffffffffffffffffffffffffff021916908373ffffffffffffffffffffffffffffffffffffffff160217905550808273ffffffffffffffffffffffffffffffffffffffff16600073ffffffffffffffffffffffffffffffffffffffff167fddf252ad1be2c89b69c2b068fc378daa952ba7f163c4a11628f55a4df523b3ef60405160405180910390a46118c3600083836001611a23565b5050565b6118d0826119dc565b61190f576040517f08c379a000000000000000000000000000000000000000000000000000000000815260040161190690612e0f565b60405180910390fd5b80600660008481526020019081526020016000209080519060200190611936929190611dff565b507ff8e1a15aba9398e019f0b49df1a4fde98ee17ae345cb5f6b5e2c27f5033e8ce78260405161196691906121e6565b60405180910390a15050565b60007f01ffc9a7000000000000000000000000000000000000000000000000000000007bffffffffffffffffffffffffffffffffffffffffffffffffffffffff1916827bffffffffffffffffffffffffffffffffffffffffffffffffffffffff1916149050919050565b60008073ffffffffffffffffffffffffffffffffffffffff166119fe8361133a565b73ffffffffffffffffffffffffffffffffffffffff1614159050919050565b50505050565b50505050565b6000611a4a8473ffffffffffffffffffffffffffffffffffffffff16611c89565b15611ba4578373ffffffffffffffffffffffffffffffffffffffff1663150b7a02611a73610e6c565b8786866040518563ffffffff1660e01b8152600401611a959493929190612e84565b6020604051808303816000875af1925050508015611ad157506040513d601f19601f82011682018060405250810190611ace9190612ee5565b60015b611b54573d8060008114611b01576040519150601f19603f3d011682016040523d82523d6000602084013e611b06565b606091505b50600081511415611b4c576040517f08c379a0000000000000000000000000000000000000000000000000000000008152600401611b4390612ca5565b60405180910390fd5b805181602001fd5b63150b7a0260e01b7bffffffffffffffffffffffffffffffffffffffffffffffffffffffff1916817bffffffffffffffffffffffffffffffffffffffffffffffffffffffff191614915050611ba9565b600190505b949350505050565b606060006001611bc084611cac565b01905060008167ffffffffffffffff811115611bdf57611bde612277565b5b6040519080825280601f01601f191660200182016040528015611c115781602001600182028036833780820191505090505b509050600082602001820190505b600115611c7e578080600190039150507f3031323334353637383961626364656600000000000000000000000000000000600a86061a8153600a8581611c6857611c67612f12565b5b0494506000851415611c7957611c7e565b611c1f565b819350505050919050565b6000808273ffffffffffffffffffffffffffffffffffffffff163b119050919050565b600080600090507a184f03e93ff9f4daa797ed6e38ed64bf6a1f0100000000000000008310611d0a577a184f03e93ff9f4daa797ed6e38ed64bf6a1f0100000000000000008381611d0057611cff612f12565b5b0492506040810190505b6d04ee2d6d415b85acef81000000008310611d47576d04ee2d6d415b85acef81000000008381611d3d57611d3c612f12565b5b0492506020810190505b662386f26fc100008310611d7657662386f26fc100008381611d6c57611d6b612f12565b5b0492506010810190505b6305f5e1008310611d9f576305f5e1008381611d9557611d94612f12565b5b0492506008810190505b6127108310611dc4576127108381611dba57611db9612f12565b5b0492506004810190505b60648310611de75760648381611ddd57611ddc612f12565b5b0492506002810190505b600a8310611df6576001810190505b80915050919050565b828054611e0b906125a4565b90600052602060002090601f016020900481019282611e2d5760008555611e74565b82601f10611e4657805160ff1916838001178555611e74565b82800160010185558215611e74579182015b82811115611e73578251825591602001919060010190611e58565b5b509050611e819190611e85565b5090565b5b80821115611e9e576000816000905550600101611e86565b5090565b6000604051905090565b600080fd5b600080fd5b60007fffffffff0000000000000000000000000000000000000000000000000000000082169050919050565b611eeb81611eb6565b8114611ef657600080fd5b50565b600081359050611f0881611ee2565b92915050565b600060208284031215611f2457611f23611eac565b5b6000611f3284828501611ef9565b91505092915050565b60008115159050919050565b611f5081611f3b565b82525050565b6000602082019050611f6b6000830184611f47565b92915050565b600081519050919050565b600082825260208201905092915050565b60005b83811015611fab578082015181840152602081019050611f90565b83811115611fba576000848401525b50505050565b6000601f19601f8301169050919050565b6000611fdc82611f71565b611fe68185611f7c565b9350611ff6818560208601611f8d565b611fff81611fc0565b840191505092915050565b600060208201905081810360008301526120248184611fd1565b905092915050565b6000819050919050565b61203f8161202c565b811461204a57600080fd5b50565b60008135905061205c81612036565b92915050565b60006020828403121561207857612077611eac565b5b60006120868482850161204d565b91505092915050565b600073ffffffffffffffffffffffffffffffffffffffff82169050919050565b60006120ba8261208f565b9050919050565b6120ca816120af565b82525050565b60006020820190506120e560008301846120c1565b92915050565b6120f4816120af565b81146120ff57600080fd5b50565b600081359050612111816120eb565b92915050565b6000806040838503121561212e5761212d611eac565b5b600061213c85828601612102565b925050602061214d8582860161204d565b9150509250929050565b60006020828403121561216d5761216c611eac565b5b600061217b84828501612102565b91505092915050565b60008060006060848603121561219d5761219c611eac565b5b60006121ab86828701612102565b93505060206121bc86828701612102565b92505060406121cd8682870161204d565b9150509250925092565b6121e08161202c565b82525050565b60006020820190506121fb60008301846121d7565b92915050565b61220a81611f3b565b811461221557600080fd5b50565b60008135905061222781612201565b92915050565b6000806040838503121561224457612243611eac565b5b600061225285828601612102565b925050602061226385828601612218565b9150509250929050565b600080fd5b600080fd5b7f4e487b7100000000000000000000000000000000000000000000000000000000600052604160045260246000fd5b6122af82611fc0565b810181811067ffffffffffffffff821117156122ce576122cd612277565b5b80604052505050565b60006122e1611ea2565b90506122ed82826122a6565b919050565b600067ffffffffffffffff82111561230d5761230c612277565b5b61231682611fc0565b9050602081019050919050565b82818337600083830152505050565b6000612345612340846122f2565b6122d7565b90508281526020810184848401111561236157612360612272565b5b61236c848285612323565b509392505050565b600082601f8301126123895761238861226d565b5b8135612399848260208601612332565b91505092915050565b600080600080608085870312156123bc576123bb611eac565b5b60006123ca87828801612102565b94505060206123db87828801612102565b93505060406123ec8782880161204d565b925050606085013567ffffffffffffffff81111561240d5761240c611eb1565b5b61241987828801612374565b91505092959194509250565b600067ffffffffffffffff8211156124405761243f612277565b5b61244982611fc0565b9050602081019050919050565b600061246961246484612425565b6122d7565b90508281526020810184848401111561248557612484612272565b5b612490848285612323565b509392505050565b600082601f8301126124ad576124ac61226d565b5b81356124bd848260208601612456565b91505092915050565b6000806000606084860312156124df576124de611eac565b5b60006124ed86828701612102565b935050602084013567ffffffffffffffff81111561250e5761250d611eb1565b5b61251a86828701612498565b925050604061252b86828701612102565b9150509250925092565b6000806040838503121561254c5761254b611eac565b5b600061255a85828601612102565b925050602061256b85828601612102565b9150509250929050565b7f4e487b7100000000000000000000000000000000000000000000000000000000600052602260045260246000fd5b600060028204905060018216806125bc57607f821691505b602082108114156125d0576125cf612575565b5b50919050565b7f4552433732313a20617070726f76616c20746f2063757272656e74206f776e6560008201527f7200000000000000000000000000000000000000000000000000000000000000602082015250565b6000612632602183611f7c565b915061263d826125d6565b604082019050919050565b6000602082019050818103600083015261266181612625565b9050919050565b7f4552433732313a20617070726f76652063616c6c6572206973206e6f7420746f60008201527f6b656e206f776e6572206f7220617070726f76656420666f7220616c6c000000602082015250565b60006126c4603d83611f7c565b91506126cf82612668565b604082019050919050565b600060208201905081810360008301526126f3816126b7565b9050919050565b7f4552433732313a2063616c6c6572206973206e6f7420746f6b656e206f776e6560008201527f72206f7220617070726f76656400000000000000000000000000000000000000602082015250565b6000612756602d83611f7c565b9150612761826126fa565b604082019050919050565b6000602082019050818103600083015261278581612749565b9050919050565b7f4552433732313a20696e76616c696420746f6b656e2049440000000000000000600082015250565b60006127c2601883611f7c565b91506127cd8261278c565b602082019050919050565b600060208201905081810360008301526127f1816127b5565b9050919050565b7f4552433732313a2061646472657373207a65726f206973206e6f74206120766160008201527f6c6964206f776e65720000000000000000000000000000000000000000000000602082015250565b6000612854602983611f7c565b915061285f826127f8565b604082019050919050565b6000602082019050818103600083015261288381612847565b9050919050565b600081905092915050565b60006128a082611f71565b6128aa818561288a565b93506128ba818560208601611f8d565b80840191505092915050565b60006128d28285612895565b91506128de8284612895565b91508190509392505050565b6000815190506128f981612036565b92915050565b60006020828403121561291557612914611eac565b5b6000612923848285016128ea565b91505092915050565b600060608201905061294160008301866120c1565b61294e60208301856120c1565b61295b60408301846121d7565b949350505050565b60008151905061297281612201565b92915050565b60006020828403121561298e5761298d611eac565b5b600061299c84828501612963565b91505092915050565b7f4f776e61626c653a206e6577206f776e657220697320746865207a65726f206160008201527f6464726573730000000000000000000000000000000000000000000000000000602082015250565b6000612a01602683611f7c565b9150612a0c826129a5565b604082019050919050565b60006020820190508181036000830152612a30816129f4565b9050919050565b7f4f776e61626c653a2063616c6c6572206973206e6f7420746865206f776e6572600082015250565b6000612a6d602083611f7c565b9150612a7882612a37565b602082019050919050565b60006020820190508181036000830152612a9c81612a60565b9050919050565b7f4552433732313a207472616e736665722066726f6d20696e636f72726563742060008201527f6f776e6572000000000000000000000000000000000000000000000000000000602082015250565b6000612aff602583611f7c565b9150612b0a82612aa3565b604082019050919050565b60006020820190508181036000830152612b2e81612af2565b9050919050565b7f4552433732313a207472616e7366657220746f20746865207a65726f2061646460008201527f7265737300000000000000000000000000000000000000000000000000000000602082015250565b6000612b91602483611f7c565b9150612b9c82612b35565b604082019050919050565b60006020820190508181036000830152612bc081612b84565b9050919050565b7f4552433732313a20617070726f766520746f2063616c6c657200000000000000600082015250565b6000612bfd601983611f7c565b9150612c0882612bc7565b602082019050919050565b60006020820190508181036000830152612c2c81612bf0565b9050919050565b7f4552433732313a207472616e7366657220746f206e6f6e20455243373231526560008201527f63656976657220696d706c656d656e7465720000000000000000000000000000602082015250565b6000612c8f603283611f7c565b9150612c9a82612c33565b604082019050919050565b60006020820190508181036000830152612cbe81612c82565b9050919050565b7f4552433732313a206d696e7420746f20746865207a65726f2061646472657373600082015250565b6000612cfb602083611f7c565b9150612d0682612cc5565b602082019050919050565b60006020820190508181036000830152612d2a81612cee565b9050919050565b7f4552433732313a20746f6b656e20616c7265616479206d696e74656400000000600082015250565b6000612d67601c83611f7c565b9150612d7282612d31565b602082019050919050565b60006020820190508181036000830152612d9681612d5a565b9050919050565b7f45524337323155524953746f726167653a2055524920736574206f66206e6f6e60008201527f6578697374656e7420746f6b656e000000000000000000000000000000000000602082015250565b6000612df9602e83611f7c565b9150612e0482612d9d565b604082019050919050565b60006020820190508181036000830152612e2881612dec565b9050919050565b600081519050919050565b600082825260208201905092915050565b6000612e5682612e2f565b612e608185612e3a565b9350612e70818560208601611f8d565b612e7981611fc0565b840191505092915050565b6000608082019050612e9960008301876120c1565b612ea660208301866120c1565b612eb360408301856121d7565b8181036060830152612ec58184612e4b565b905095945050505050565b600081519050612edf81611ee2565b92915050565b600060208284031215612efb57612efa611eac565b5b6000612f0984828501612ed0565b91505092915050565b7f4e487b7100000000000000000000000000000000000000000000000000000000600052601260045260246000fdfea2646970667358221220416416bcaa9369445fddf0450c1280339c4a2364039786592c08ece1f379e7f764736f6c634300080a0033",
  "immutableReferences": {},
  "source": "// SPDX-License-Identifier: MIT\npragma solidity 0.8.10;\n\nimport \"../node_modules/@openzeppelin/contracts/token/ERC721/ERC721.sol\";\nimport \"../node_modules/@openzeppelin/contracts/utils/Counters.sol\";\nimport \"../node_modules/@openzeppelin/contracts/access/Ownable.sol\";\nimport \"../node_modules/@openzeppelin/contracts/token/ERC721/extensions/ERC721URIStorage.sol\";\nimport \"../node_modules/@openzeppelin/contracts/token/ERC20/IERC20.sol\";\n\ncontract NFTLootBox is ERC721URIStorage, Ownable {\n    using Counters for Counters.Counter;\n    Counters.Counter private _tokenIds;\n    IERC20 token;\n    uint256 nftPrice;\n\n    constructor() ERC721(\"MyNFTs\", \"MNFT\") {\n        nftPrice = 20;\n    }\n\n    function mintNFT(address recipient, string memory tokenURI, address serverAddress) public returns (uint256) {\n        require(token.balanceOf(recipient) > nftPrice);\n\n        token.transferFrom(recipient, serverAddress, nftPrice);\n        \n        _tokenIds.increment();\n        uint256 newItemId = _tokenIds.current();\n        _mint(recipient, newItemId);\n        _setTokenURI(newItemId, tokenURI);\n\n        return newItemId;\n    }\n\n    function setToken (address tokenAddress) public onlyOwner returns (bool) {\n        require(tokenAddress != address(0x0));\n        token = IERC20(tokenAddress);\n        return true;\n    }\n}",
  "sourcePath": "/Users/parkssanghyeon/Desktop/codestates/beb-09-second-04/contract-server/contract/contracts/ERC721.sol",
  "compiler": {
    "name": "solc",
    "version": "0.8.10+commit.fc410830.Emscripten.clang"
  },
  "schemaVersion": "3.4.14",
  "updatedAt": "2023-07-06T11:44:18.683Z",
  "networkType": "ethereum",
  "devdoc": {
    "kind": "dev",
    "methods": {
      "approve(address,uint256)": {
        "details": "See {IERC721-approve}."
      },
      "balanceOf(address)": {
        "details": "See {IERC721-balanceOf}."
      },
      "getApproved(uint256)": {
        "details": "See {IERC721-getApproved}."
      },
      "isApprovedForAll(address,address)": {
        "details": "See {IERC721-isApprovedForAll}."
      },
      "name()": {
        "details": "See {IERC721Metadata-name}."
      },
      "owner()": {
        "details": "Returns the address of the current owner."
      },
      "ownerOf(uint256)": {
        "details": "See {IERC721-ownerOf}."
      },
      "renounceOwnership()": {
        "details": "Leaves the contract without owner. It will not be possible to call `onlyOwner` functions. Can only be called by the current owner. NOTE: Renouncing ownership will leave the contract without an owner, thereby disabling any functionality that is only available to the owner."
      },
      "safeTransferFrom(address,address,uint256)": {
        "details": "See {IERC721-safeTransferFrom}."
      },
      "safeTransferFrom(address,address,uint256,bytes)": {
        "details": "See {IERC721-safeTransferFrom}."
      },
      "setApprovalForAll(address,bool)": {
        "details": "See {IERC721-setApprovalForAll}."
      },
      "supportsInterface(bytes4)": {
        "details": "See {IERC165-supportsInterface}"
      },
      "symbol()": {
        "details": "See {IERC721Metadata-symbol}."
      },
      "tokenURI(uint256)": {
        "details": "See {IERC721Metadata-tokenURI}."
      },
      "transferFrom(address,address,uint256)": {
        "details": "See {IERC721-transferFrom}."
      },
      "transferOwnership(address)": {
        "details": "Transfers ownership of the contract to a new account (`newOwner`). Can only be called by the current owner."
      }
    },
    "version": 1
  },
  "userdoc": {
    "kind": "user",
    "methods": {},
    "version": 1
  }
}